:100000000C9446000C9465000C9465000C946500FB
:100010000C9465000C9465000C9465000C946500CC
:100020000C9465000C9465000C9465000C946500BC
:100030000C9465000C94DE000C9465000C94650033
:100040000C9465000C9465000C9465000C9465009C
:100050000C9465000C9465000C9465000C9465008C
:100060000C9465000C9465000C9465000C9465007C
:100070000C9465000C9465000C9465000C9465006C
:100080000C9465000C9465000C94650011241FBE4F
:10009000CFEFD0E4DEBFCDBF11E0A0E0B1E0EEECE9
:1000A000F6E000E00BBF02C007900D92A231B1074D
:1000B000D9F721E0A2E1B1E001C01D92A332B2075D
:1000C000E1F70E94F5020C9465030C940000CF93B5
:1000D000DF9300D01F92CDB7DEB789837B836A831D
:1000E00089818A3031F48A819B81BC018DE00E9434
:1000F000670080EC90E0FC018081882F90E08072A6
:100100009927892BB1F386EC90E02981FC012083AB
:1001100080E090E00F900F900F90DF91CF910895C5
:10012000CF93DF93CDB7DEB781E890E02BE0FC0101
:10013000208388E890E02DE730E0FC0131832083C4
:100140008FE690E022E0FC01208384E890E0FC014F
:100150001182108280910E0190910F01A0911001E7
:10016000B09111018093130190931401A093150194
:10017000B09316018FE590E02FE530E0F901208182
:100180002068FC0120830000DF91CF910895CF9378
:10019000DF93CDB7DEB781E890E0FC01108200006C
:1001A000DF91CF910895CF93DF93CDB7DEB781E094
:1001B000809312010000DF91CF9108951F920F925A
:1001C00000905F000F92112400905B000F922F931C
:1001D0003F934F935F936F937F938F939F93AF93CF
:1001E000BF93EF93FF93CF93DF93CDB7DEB78091AB
:1001F000130190911401A0911501B091160101977E
:10020000A109B1098093130190931401A0931501E2
:10021000B09316018091130190911401A0911501E2
:10022000B0911601892B8A2B8B2B91F40E94D3005D
:1002300080910E0190910F01A0911001B0911101D8
:100240008093130190931401A0931501B0931601AC
:100250000000DF91CF91FF91EF91BF91AF919F91FE
:100260008F917F916F915F914F913F912F910F905F
:1002700000925B000F9000925F000F901F90189506
:10028000CF93DF9300D000D0CDB7DEB769837A83F8
:100290008B839C8389819A81AB81BC8180930E0181
:1002A00090930F01A0931001B093110180910E0162
:1002B00090910F01A0911001B09111018093130151
:1002C00090931401A0931501B093160100000F90B4
:1002D0000F900F900F90DF91CF910895CF93DF9300
:1002E00000D01F92CDB7DEB78B831A82198227C048
:1002F00088E290E028E0FC01208388E290E028E298
:1003000030E0F9012081422F2B81222F30E009803B
:1003100002C0359527950A94E2F72170242BFC0141
:10032000208388E290E028E230E0F9012081226019
:10033000FC01208389819A8101969A83898389812E
:100340009A810897ACF288E290E028E230E0F90167
:1003500020812460FC01208388E290E0FC0110826F
:1003600000000F900F900F90DF91CF910895CF93E1
:10037000DF93CDB7DEB780911E0190911F010097EA
:1003800019F0019759F016C08AEA8093220181E0A2
:1003900090E090931F0180931E010CC08091220178
:1003A00080958093220181E090E090931F018093DB
:1003B0001E0100000000DF91CF910895CF93DF93DD
:1003C000CDB7DEB780912001909121018130910558
:1003D00081F08130910518F0029711F138C080E862
:1003E0008093220181E090E090932101809320018D
:1003F0002EC080912201823060F08091220186958A
:100400008093220181E090E090932101809320016C
:100410001EC082E090E0909321018093200117C0DC
:1004200080912201882364F080912201880F8093BB
:10043000220182E090E0909321018093200106C088
:1004400081E090E090932101809320010000000062
:10045000DF91CF910895CF93DF93CDB7DEB7809131
:100460001C0190911D01009719F0019759F016C0D9
:100470008CEC8093220181E090E090931D018093A9
:100480001C010CC08091220180958093220181E0A3
:1004900090E090931D0180931C0100000000DF910B
:1004A000CF910895CF93DF93CDB7DEB780911A0136
:1004B00090911B01009719F0019769F092C010927A
:1004C000190181E08093170181E090E090931B0176
:1004D00080931A0186C080911901882371F480915C
:1004E0001801833051F481E08093190181E090E09C
:1004F00090931B0180931A0173C080911901813080
:1005000091F480911801833071F4109219011092C6
:10051000220181E08093170181E090E090931B011C
:1005200080931A015DC0809119018130A1F48091FE
:100530001801813081F480911701833060F480913B
:1005400017018F5F8093170181E090E090931B016A
:1005500080931A0145C080911901813079F480910E
:100560001801823059F480911701813039F481E00B
:1005700090E090931B0180931A0132C08091190181
:100580008130A1F480911801823081F480911701AB
:10059000823060F08091170181508093170181E0D3
:1005A00090E090931B0180931A011AC08091190169
:1005B000813079F480911801813059F480911701CC
:1005C000833039F481E090E090931B0180931A010D
:1005D00007C081E090E090931B0180931A0100C056
:1005E00000000000DF91CF910895CF93DF93CDB746
:1005F000DEB781E290E0FC01108282E290E02FEF12
:10060000FC01208387E290E02FEFFC01208388E249
:1006100090E0FC01108268EC70E080E090E00E94C5
:10062000400110921B0110921A010E94900080E27A
:1006300090E0FC01808180958370809318010E9476
:10064000520280911701813079F480911901882339
:1006500059F0109221011092200110921D01109268
:100660001C010E94B70125C080911701823079F4E6
:1006700080911901882359F010921F0110921E01D8
:1006800010921D0110921C010E94DE0112C0809187
:100690001701833071F480911901882351F0109271
:1006A0001F0110921E0110922101109220010E9440
:1006B0002B02809122010E946E01000080911201A4
:0E06C0008823E1F310921201B2CFF894FFCF1D
:1006CE0000000002000000006700000000000100B2
:0206DE0000001A
:00000001FF
