:100000000C9446000C9465000C9465000C946500FB
:100010000C9465000C9465000C9465000C946500CC
:100020000C9465000C9465000C9465000C946500BC
:100030000C9465000C94DE000C9465000C94650033
:100040000C9465000C9465000C9465000C9465009C
:100050000C9465000C9465000C9465000C9465008C
:100060000C9465000C9465000C9465000C9465007C
:100070000C9465000C9465000C9465000C9465006C
:100080000C9465000C9465000C94650011241FBE4F
:10009000CFEFD0E4DEBFCDBF11E0A0E0B1E0E6EEEF
:1000A000F9E000E00BBF02C007900D92A431B10748
:1000B000D9F721E0A4E1B1E001C01D92AE32B20750
:1000C000E1F70E9449040C94F1040C940000CF93D2
:1000D000DF9300D01F92CDB7DEB789837B836A831D
:1000E00089818A3031F48A819B81BC018DE00E9434
:1000F000670080EC90E0FC018081882F90E08072A6
:100100009927892BB1F386EC90E02981FC012083AB
:1001100080E090E00F900F900F90DF91CF910895C5
:10012000CF93DF93CDB7DEB781E890E02BE0FC0101
:10013000208388E890E02DE730E0FC0131832083C4
:100140008FE690E022E0FC01208384E890E0FC014F
:100150001182108280910E0190910F01A0911001E7
:10016000B09111018093150190931601A09317018E
:10017000B09318018FE590E02FE530E0F901208180
:100180002068FC0120830000DF91CF910895CF9378
:10019000DF93CDB7DEB781E890E0FC01108200006C
:1001A000DF91CF910895CF93DF93CDB7DEB781E094
:1001B000809314010000DF91CF9108951F920F9258
:1001C00000905F000F92112400905B000F922F931C
:1001D0003F934F935F936F937F938F939F93AF93CF
:1001E000BF93EF93FF93CF93DF93CDB7DEB78091AB
:1001F000150190911601A0911701B0911801019776
:10020000A109B1098093150190931601A0931701DC
:10021000B09318018091150190911601A0911701DA
:10022000B0911801892B8A2B8B2B91F40E94D3005B
:1002300080910E0190910F01A0911001B0911101D8
:100240008093150190931601A0931701B0931801A4
:100250000000DF91CF91FF91EF91BF91AF919F91FE
:100260008F917F916F915F914F913F912F910F905F
:1002700000925B000F9000925F000F901F90189506
:10028000CF93DF9300D000D0CDB7DEB769837A83F8
:100290008B839C8389819A81AB81BC8180930E0181
:1002A00090930F01A0931001B093110180910E0162
:1002B00090910F01A0911001B0911101809315014F
:1002C00090931601A0931701B093180100000F90AE
:1002D0000F900F900F90DF91CF910895CF93DF9300
:1002E00000D000D0CDB7DEB78B836C8381E09C81DA
:1002F0009817E1F51A82198227C088E290E028E079
:10030000FC01208388E290E028E230E0F9012081BE
:10031000422F2B81222F30E0098002C0359527958E
:100320000A94E2F72170242BFC01208388E290E0FC
:1003300028E230E0F90120812260FC0120838981DC
:100340009A8101969A83898389819A810897ACF270
:1003500088E290E028E230E0F90120812460FC018D
:10036000208388E290E0FC0110823FC082E09C8103
:100370009817D9F51A82198227C088E290E020E206
:10038000FC01208388E290E028E230E0F90120813E
:10039000422F2B81222F30E0098002C0359527950E
:1003A0000A94E2F72170242BFC01208388E290E07C
:1003B00028E230E0F90120812260FC01208389815C
:1003C0009A8101969A83898389819A810897ACF2F0
:1003D00088E290E028E230E0F90120812061FC0110
:1003E000208388E290E0FC01108200000F900F90C3
:1003F0000F900F90DF91CF910895CF93DF93CDB7FA
:10040000DEB780912101909122018130910581F028
:100410008130910518F0029711F138C081E0809386
:10042000270181E090E090932201809321012EC06A
:1004300080912701882364F080912701880F8093A1
:10044000270181E090E090932201809321011EC05A
:1004500082E090E0909322018093210117C0809167
:100460002701823060F080912701869580932701D3
:1004700082E090E0909322018093210106C081E008
:1004800090E0909322018093210100000000DF9111
:10049000CF910895CF93DF93CDB7DEB780912A0136
:1004A00090912B01009719F0019759F016C089E936
:1004B0008093270181E090E090932B0180932A01A3
:1004C0000CC08091270180958093270181E090E006
:1004D00090932B0180932A0100000000DF91CF91BF
:1004E0000895CF93DF93CDB7DEB780911F01909130
:1004F0002001009719F0019759F016C080EF809302
:10050000260181E090E09093200180931F010CC0B0
:100510008091260180958093260181E090E0909360
:10052000200180931F0100000000DF91CF9108950A
:10053000CF93DF93CDB7DEB7809124019091250151
:10054000009719F0019759F016C081E180932601B8
:1005500081E090E090932501809324010CC080916C
:10056000260180958093260181E090E090932501FB
:100570008093240100000000DF91CF910895CF9374
:10058000DF93CDB7DEB780912801909129010097C4
:1005900019F0019759F016C08FEF8093270181E081
:1005A00090E090932901809328010CC0809127014D
:1005B00080958093270181E090E0909329018093BA
:1005C000280100000000DF91CF910895CF93DF93C1
:1005D000CDB7DEB780912C0190912D01009719F0D5
:1005E000019759F016C083EC8093260181E090E0DA
:1005F00090932D0180932C010CC080912601809551
:100600008093260181E090E090932D0180932C014E
:1006100000000000DF91CF910895CF93DF93CDB715
:10062000DEB780911C0190911D01009719F0019790
:10063000D1F02BC180E290E0FC0180818095837035
:10064000809319011092230110921A0181E0809386
:100650001B0181E080931E0181E090E090931D01D9
:1006600080931C0112C180E290E0FC0180818095A2
:1006700083738093190180912301882371F4809101
:100680001901833051F481E08093230181E090E0EF
:1006900090931D0180931C0172C0809123018130D1
:1006A00091F480911901833071F41092230110921A
:1006B000270181E080931B0181E090E090931D0170
:1006C00080931C015CC0809123018130A1F4809152
:1006D0001901813081F480911B01833060F4809195
:1006E0001B018F5F80931B0181E090E090931D01BF
:1006F00080931C0144C0809123018130A1F480913A
:100700001901823081F480911B01823060F0809168
:100710001B01815080931B0181E090E090931D01AB
:1007200080931C012CC080912301813079F4809149
:100730001901823059F480911B01813039F481E034
:1007400090E090931D0180931C0119C080912301BA
:10075000813079F480911901813059F480911B0125
:10076000833039F481E090E090931D0180931C0167
:1007700006C081E090E090931D0180931C01809160
:100780001A01882371F480911901803351F481E0BA
:1007900080931A0181E090E090931D0180931C01E9
:1007A00073C080911A01813091F4809119018033D6
:1007B00071F410921A011092260181E080931E01BB
:1007C00081E090E090931D0180931C015DC08091B9
:1007D0001A018130A1F480911901803181F4809156
:1007E0001E01833060F480911E018F5F80931E0193
:1007F00081E090E090931D0180931C0145C08091A1
:100800001A018130A1F480911901803281F4809124
:100810001E01823060F080911E01815080931E0184
:1008200081E090E090931D0180931C012DC0809188
:100830001A01813079F480911901803259F4809144
:100840001E01813039F481E090E090931D01809386
:100850001C011AC080911A01813079F4809119012C
:10086000803159F480911E01833039F481E090E0A9
:1008700090931D0180931C0107C081E090E090934C
:100880001D0180931C0100C000000000DF91CF918A
:100890000895CF93DF93CDB7DEB781E290E0FC01FE
:1008A000108282E290E02FEFFC01208387E290E04B
:1008B0002FEFFC01208388E290E0FC0110826CE2C3
:1008C00071E080E090E00E94400110921D011092C2
:1008D0001C010E9490000E940D0380911B01813039
:1008E00079F480912301882359F010922B01109202
:1008F0002A0110922901109228010E94FD0125C0B1
:1009000080911B01823079F480912301882359F072
:1009100010922201109221011092290110922801B7
:100920000E944A0212C080911B01833071F48091B1
:100930002301882351F010922B0110922A0110926A
:100940002201109221010E94BF0280911E0181307C
:1009500079F480911A01882359F0109225011092A0
:10096000240110922D0110922C010E94710225C0C9
:1009700080911E01823079F480911A01882359F008
:100980001092200110921F0110922D0110922C0143
:100990000E94980212C080911E01833071F48091F0
:1009A0001A01882351F0109225011092240110920F
:1009B000200110921F010E94E60291E08091270120
:1009C000692F0E946E0192E080912601692F0E949A
:1009D0006E010000809114018823E1F3109214014C
:0609E0007ACFF894FFCF6E
:1009E6000000000200000000670000000000010097
:0409F60000000102FA
:00000001FF
