:100000000C9446000C9465000C9465000C946500FB
:100010000C9465000C9465000C9465000C946500CC
:100020000C9465000C9465000C9465000C946500BC
:100030000C9465000C94DE000C9465000C94650033
:100040000C9465000C9465000C9465000C9465009C
:100050000C9465000C9465000C9465000C9465008C
:100060000C9465000C9465000C9465000C9465007C
:100070000C9465000C9465000C9465000C9465006C
:100080000C9465000C9465000C94650011241FBE4F
:10009000CFEFD0E4DEBFCDBF11E0A0E0B1E0E8EDEE
:1000A000F6E000E00BBF02C007900D92A231B1074D
:1000B000D9F721E0A2E1B1E001C01D92AB31B20756
:1000C000E1F70E943A030C946A030C940000CF936A
:1000D000DF9300D01F92CDB7DEB789837B836A831D
:1000E00089818A3031F48A819B81BC018DE00E9434
:1000F000670080EC90E0FC018081882F90E08072A6
:100100009927892BB1F386EC90E02981FC012083AB
:1001100080E090E00F900F900F90DF91CF910895C5
:10012000CF93DF93CDB7DEB781E890E02BE0FC0101
:10013000208388E890E02DE730E0FC0131832083C4
:100140008FE690E022E0FC01208384E890E0FC014F
:100150001182108280910E0190910F01A0911001E7
:10016000B09111018093130190931401A093150194
:10017000B09316018FE590E02FE530E0F901208182
:100180002068FC0120830000DF91CF910895CF9378
:10019000DF93CDB7DEB781E890E0FC01108200006C
:1001A000DF91CF910895CF93DF93CDB7DEB781E094
:1001B000809312010000DF91CF9108951F920F925A
:1001C00000905F000F92112400905B000F922F931C
:1001D0003F934F935F936F937F938F939F93AF93CF
:1001E000BF93EF93FF93CF93DF93CDB7DEB78091AB
:1001F000130190911401A0911501B091160101977E
:10020000A109B1098093130190931401A0931501E2
:10021000B09316018091130190911401A0911501E2
:10022000B0911601892B8A2B8B2B91F40E94D3005D
:1002300080910E0190910F01A0911001B0911101D8
:100240008093130190931401A0931501B0931601AC
:100250000000DF91CF91FF91EF91BF91AF919F91FE
:100260008F917F916F915F914F913F912F910F905F
:1002700000925B000F9000925F000F901F90189506
:10028000CF93DF9300D000D0CDB7DEB769837A83F8
:100290008B839C8389819A81AB81BC8180930E0181
:1002A00090930F01A0931001B093110180910E0162
:1002B00090910F01A0911001B09111018093130151
:1002C00090931401A0931501B093160100000F90B4
:1002D0000F900F900F90DF91CF910895CF93DF9300
:1002E00000D01F92CDB7DEB78B831A82198227C048
:1002F00088E290E028E0FC01208388E290E028E298
:1003000030E0F9012081422F2B81222F30E009803B
:1003100002C0359527950A94E2F72170242BFC0141
:10032000208388E290E028E230E0F9012081226019
:10033000FC01208389819A8101969A83898389812E
:100340009A810897ACF288E290E028E230E0F90167
:1003500020812460FC01208388E290E0FC0110826F
:1003600000000F900F900F90DF91CF910895CF93E1
:10037000DF931F92CDB7DEB780E290E0FC01808171
:10038000809589838091190190911A01823091059D
:1003900009F4B0C08330910528F4009759F0019713
:1003A000B1F039C18330910509F458C0049709F4BC
:1003B000EDC031C185E290E020911701FC0120835E
:1003C00081E090E090931A018093190130C18981F6
:1003D000882F90E083709927892B39F481E090E091
:1003E00090931A01809319011BC18981882F90E095
:1003F00083709927019789F482E090E090931A0125
:1004000080931901809117018F3F09F409C18091F0
:1004100017018F5F8093170103C18981882F90E0B6
:1004200083709927029789F483E090E090931A01F2
:100430008093190180911701882309F4F1C08091FC
:100440001701815080931701EBC084E090E09093F6
:100450001A018093190110921701E2C08981882F37
:1004600090E083709927892B39F481E090E0909394
:100470001A0180931901D6C08981882F90E083707A
:100480009927019789F482E090E090931A01809374
:100490001901809117018F3F09F4C4C080911701A1
:1004A0008F5F80931701BEC08981882F90E0837091
:1004B00099270297B1F483E090E090931A0180931A
:1004C0001901809118018A3009F0ACC080911701A0
:1004D000882309F4A7C080911701815080931701E8
:1004E000A1C084E090E090931A01809319011092CA
:1004F000170198C08981882F90E083709927892BF4
:1005000039F481E090E090931A01809319018CC036
:100510008981882F90E0837099270197B1F482E058
:1005200090E090931A0180931901809118018A300C
:1005300009F07AC0809117018F3F09F475C080914E
:1005400017018F5F809317016FC08981882F90E01A
:1005500083709927029789F483E090E090931A01C1
:100560008093190180911701882309F45DC080915F
:10057000170181508093170157C084E090E0909359
:100580001A0180931901109217014EC08981882F9A
:1005900090E083709927892B39F481E090E0909363
:1005A0001A018093190142C08981882F90E08370DD
:1005B0009927019781F482E090E090931A0180934B
:1005C000190180911701893088F5809117018F5F9B
:1005D000809317012BC08981882F90E08370992721
:1005E000029781F483E090E090931A0180931901BF
:1005F000809117018823D1F0809117018150809359
:10060000170114C084E090E090931A0180931901BF
:10061000109217010BC010921A011092190107C015
:10062000000005C0000003C0000001C00000809170
:10063000190190911A018230910571F08330910572
:1006400028F4009759F0019759F00FC083309105B5
:1006500049F0049749F009C0000007C0000005C038
:10066000000003C0000001C0000000000F90DF91F7
:10067000CF910895CF93DF93CDB7DEB781E290E0BD
:10068000FC01108282E290E02FEFFC01208387E2E0
:1006900090E02FEFFC01208388E290E0FC011082C3
:1006A00066E970E080E090E00E9440010E949000C6
:1006B00010921A01109219010000809112018823F2
:1006C000E1F3109212010E94B701809117010E947C
:0806D0006E01F2CFF894FFCF98
:1006D80000000002000000006700000000000100A8
:0206E800000010
:00000001FF
